:100000000C944D060C9475060C9475060C947506AC
:100010000C9475060C9475060C9475060C94750674
:100020000C9475060C9475060C9444100C94AD1049
:100030000C9475060C9475060C9475060C94750654
:100040000C9475060C9475060C9475060C94750644
:100050000C9475060C9475060C9475060C94E112BC
:100060000C9475060C9475060C9475060C94750624
:100070000C9475060C9475060C9475060C94750614
:100080000C9475060C9475060C9475060C94750604
:100090000C9475060C9475060C9475060C947506F4
:1000A0000C9475060C9475060C9475066364696E61
:1000B0006F70737578585B0000000000000000004E
:1000C0002A2B2800000000000000000000000000B3
:1000D00000000000000000002C9EB4A0A1A2A434E7
:1000E000A6A7A5AE362D3738271E1F202122232490
:1000F0002526B333B62EB7B89F8485868788898A2C
:100100008B8C8D8E8F909192939495969798999AC7
:100110009B9C9D2F3130A3AD350405060708090AC5
:100120000B0C0D0E0F101112131415161718191AA7
:100130001B1C1DAFB1B0B50005010906A1010507E3
:1001400019E029E715002501750195088102050CC4
:1001500095017508150026FF00190029FF8100058B
:10016000081901290895087501910205079506757A
:1001700008150026E700190029E78100C0080B00D8
:10018000020202000009040000010202000005242E
:1001900000100105240101010424020605240600C3
:1001A000010705810310004009040100020A000054
:1001B000000705020240000007058302400000041A
:1001C00003090412010002EF0201409A230E80008D
:1001D000010102030141646166727569740049742A
:1001E000737942697473792033327534203556201F
:1001F00031364D487A0000000000240027002A0014
:100200002D0030007365745F6C616E6775616765A2
:100210005F656E676C697368203C6F6E7C6F6666A5
:100220003E3A207475726E206F6E206F72206F667A
:10023000662073657474696E6720746865206C61EC
:100240006E677561676520746F20456E676C6973B2
:1002500068206265666F72652072756E6E696E6782
:1002600020776F726B666C6F772E007365745F72A8
:1002700065636F766572795F6D6F64653A20307C77
:10028000317C323A207265636F76657279206D6FCA
:100290006465202D20636F6D6D616E642D72202862
:1002A00030292C206F7074696F6E2D636F6D6D61D6
:1002B0006E642D72202831292C2073686966742D94
:1002C0006F7074696F6E2D636F6D6D616E642D72EA
:1002D00020283229007365745F65726173655F76EB
:1002E0006F6C756D65203C6F6E7C6F66663E3A2064
:1002F0006F70656E207570206469736B207574690A
:100300006C69747920616E64206572617365206622
:100310006972737420766F6C756D652E00736574E9
:100320005F6175746F72756E203C6F6E7C6F666670
:100330003E3A206175746F6D61746963616C6C79AC
:1003400020656E746572207265636F7665727920C0
:100350006D6F64652061667465722061646D696E9D
:100360002074696D652E007265636F766572793AE7
:100370002070726F76696465206B6579626F617257
:100380006420636F6D6D616E647320746F20626FA3
:100390006F7420696E746F207265636F7665727911
:1003A00020616E642072756E207265736F75726362
:1003B00065732066726F6D2065787465726E616C0E
:1003C00020766F6C756D65206F722072656D6F742D
:1003D00065206469736B20696D6167652E007072BA
:1003E0006F66696C65203C706174685F746F5F70E4
:1003F000726F66696C653E203C61646D696E206E4B
:10040000616D653E203C61646D696E20706173733F
:10041000776F72643E3A20696E7374616C6C207001
:10042000726F66696C652E0075616D646D3A204F60
:1004300070656E2053797374656D205072656665C2
:1004400072656E63657320616E6420636C69636BB3
:1004500020417070726F766520666F722055414D35
:10046000444D20696E2050726F66696C6573207010
:10047000616E652E204D757374206265206C6F6708
:1004800067656420696E2E006465703A204175745A
:100490006F6D61746963616C6C7920636F6E6669FE
:1004A000677572652044455020696E2073657475C8
:1004B0007020617373697374616E74006765745F33
:1004C00073657474696E67733A2047657420616C54
:1004D0006C2073657474696E677320696E204A536B
:1004E0004F4E20666F726D61742E007365745F737A
:1004F000657474696E6773203C6A736F6E3E3A2050
:1005000050726F7669646520616C6C2073657474D9
:10051000696E677320696E204A534F4E20666F7272
:100520006D61742E007365745F7072655F636F6DCB
:100530006D616E645F64656C6179203C7365636FA7
:100540006E64733E3A20686F77206D616E79207318
:1005500065636F6E647320746F20776169742061C6
:1005600066746572206C61756E6368696E6720746D
:1005700065726D696E616C20756E74696C2074793A
:1005800070696E6720636F6D6D616E642E007365B8
:10059000745F737461727475705F64656C617920E7
:1005A0003C7365636F6E64733E3A20686F77206DAD
:1005B000616E79207365636F6E647320746F20774A
:1005C0006169742066726F6D20626F6F74696E6707
:1005D00020696E207265636F7665727920746F2072
:1005E0006C61756E6368696E67207465726D696EA3
:1005F000616C2E007365745F6669726D77617265F8
:100600005F70617373776F7264203C70617373778E
:100610006F72643E3A20736574206669726D77610B
:1006200072652070617373776F726420746F2065D8
:100630006E746572207072696F7220746F20626FC1
:100640006F74696E6720746F207265636F76657270
:10065000792E007365745F636F6D6D616E64203C0D
:10066000636F6D6D616E643E3A2073657420636FD5
:100670006D6D616E6420746F2072756E20696E20DE
:100680007265636F766572792E007265626F6F7442
:100690003A207265626F6F742074686520646576B5
:1006A0006963650072657365743A20726573657479
:1006B0002073657474696E677320746F2064656657
:1006C00061756C74730073686F773A2073686F7725
:1006D0002063757272656E742073657474696E67D9
:1006E000730068656C703A2074686973206D657377
:1006F00073616765000A436F707972696768742077
:10070000323031392054776F63616E6F65732053D7
:100710006F6674776172652C20496E632E0046699E
:100720006E64657200696E7374616C6C696E6720CB
:1007300070726F66696C652E2E2E00496E76616C44
:10074000696420636F6D6D616E642E20456E746503
:10075000722068656C7020666F72207573616765C2
:100760002E00444154413A00496E76616C69642020
:10077000626C6F636B206F72206C656E6774682E9D
:10078000007365745F73657474696E677300726576
:10079000626F6F7400496E76616C69642076616C7B
:1007A00075652E20506C6561736520737065636993
:1007B0006679206F6E206F72206F666600536574D5
:1007C00020456E676C697368204C616E6775616760
:1007D00065207475726E6564206F6666005365747B
:1007E00020456E676C697368204C616E6775616740
:1007F00065207475726E6564206F6E00496E766157
:100800006C696420636F6D6D6D616E642E20506C39
:10081000656173652070726F76696465206F6E2004
:100820006F72206F666620666F7220746865207331
:1008300065745F65726173655F766F6C756D652059
:10084000636F6D6D616E64007365745F6C616E677C
:10085000756167655F656E676C69736800496E7680
:10086000616C69642076616C75652E20506C6561E1
:1008700073652073706563696679206F6E206F728F
:10088000206F666600457261736520566F6C756DEA
:1008900065207475726E6564206F666600457261CE
:1008A000736520566F6C756D65207475726E656426
:1008B000206F6E00496E76616C696420636F6D6DA8
:1008C0006D616E642E20506C656173652070726F6F
:1008D00076696465206F6E206F72206F6666206691
:1008E0006F7220746865207365745F6572617365EB
:1008F0005F766F6C756D6520636F6D6D616E640002
:100900007365745F65726173655F766F6C756D6535
:1009100000496E76616C696420636F6D6D6D616E08
:10092000642E2050726F766964652070617468204F
:10093000746F2070726F66696C6520616E642061EF
:100940002061646D696E2070617373776F726420CB
:1009500073657061726174656420627920612073CF
:10096000706163652E205061746820616E64207030
:10097000617373776F72642063616E6E6F7420634E
:100980006F6E7461696E2074686520737061636551
:10099000206368617261637465720070726F66696A
:1009A0006C6500496E76616C69642076616C756572
:1009B0002E20506C6561736520737065636966797C
:1009C000206F6E206F72206F6666004175746F72C3
:1009D000756E207475726E6564206F666600417571
:1009E000746F72756E207475726E6564206F6E0020
:1009F000496E76616C696420636F6D6D6D616E64C4
:100A00002E20506C656173652070726F7669646525
:100A1000206F6E206F72206F666620666F72207482
:100A20006865207365745F6175746F72756E20639D
:100A30006F6D6D616E64007365745F6175746F7264
:100A4000756E0075616D646D0064657000626F6F36
:100A5000746C6F61646572007265636F766572793C
:100A6000007265736574007365745F7265636F7699
:100A70006572795F6D6F6465007365745F70726530
:100A80005F636F6D6D616E645F64656C6179007347
:100A900065745F737461727475705F64656C61799D
:100AA0000068656C7000536574204C616E677561F9
:100AB000676520746F20456E676C6973683A0045FE
:100AC0007261736520566F6C756D653A005265638F
:100AD0006F76657279206D6F64653A200041757498
:100AE0006F72756E3A004E4F004669726D77617293
:100AF00065206973205365743A0050726520436F16
:100B00006D6D6D616E642044656C61793A0053745B
:100B100061727475702044656C61793A00436F6D41
:100B20006D616E643A00436F6E66696775726174D9
:100B3000696F6E204D6F64652E20456E746572205E
:100B400068656C7020666F7220617373697374617D
:100B50006E63652E20436F70797269676874203206
:100B60003031382D323031392054776F63616E6FF8
:100B7000657320536F6674776172652C20496E63CC
:100B80002E0052756E6E696E672055414D444D2E94
:100B90002E2E0052756E6E696E672E2E2E005072CC
:100BA000657373203C72657475726E3E20746F209D
:100BB000656E74657220636F6E66696775726174C5
:100BC000696F6E206D6F64652E00436F7079726976
:100BD00067687420323031382054776F63616E6FEC
:100BE000657320536F6674776172652C20496E635C
:100BF0002E0000000000250028002B002E003100F0
:100C000004040404040304050202020204030202B1
:100C10000202060606060606040402020204040492
:100C200008020110408040102040804080080204EB
:100C30000180402010020110801020404020000060
:100C4000000200090F0000030401000C0000000076
:100C50000000000000000000000000000005010985
:100C600006A1018502050719E029E7150025017590
:100C70000195088102050C95017508150026FF00F5
:100C8000190029FF8100050795067508150026E75C
:100C900000190029E78100C0381311241FBECFEFCF
:100CA000DAE0DEBFCDBF23E0A2EFB1E001C01D92CC
:100CB000AB3EB207E1F711E0A0E0B1E0E6EBFCE407
:100CC00002C005900D92A23FB107D9F716E0CDE41E
:100CD000D6E004C02197FE010E949B1ECC34D107B0
:100CE000C9F70E9401140C9459260C940000EBE4FF
:100CF000FCE02491ECE2FCE03491EDE0FCE0949126
:100D0000992309F430C02223E9F021502F30D0F488
:100D1000E22FF0E0E257F94F0C949B1EBC06C00690
:100D20009D06B406B806A206A206A206C306C90618
:100D3000CD06D106D706A206DB06209180002F77CC
:100D400020938000E92FF0E0EE0FFF1FEE50F44FEC
:100D5000A591B4919FB7F894EC91811132C0309570
:100D60003E233C939FBF0895209180002F7DE8CFC4
:100D700020918000277FE4CF24B52F7724BDE2CFD8
:100D800024B52F7DFBCF209190002F7720939000EA
:100D9000D9CF209190002F7DF9CF20919000277F0F
:100DA000F5CF2091C0002F772093C000CBCF2091AA
:100DB000C0002F7DF9CF2091C200277F2093C20071
:100DC000C1CF3E2BCECFFC0180911102882309F1C7
:100DD0003FB7F89482E08093E9002091F200822FDF
:100DE00090E01816190614F481E090E0882331F0A1
:100DF00044E6409310024091F1004083222339F0F1
:100E00002091F200211103C02BE62093E8003FBFA0
:100E100008958FEF9FEF0895CF93DF93EC019B012F
:100E2000B4E6ABEF21153105F1F0A901213431050C
:100E300014F040E450E08091E80082FFFCCF942F52
:100E4000FB01E21BF30BEC0FFD1F915028F080918A
:100E5000F10080833196F9CFB0931002A093E8009F
:100E6000241B350BDFCFCB01DF91CF91089540914B
:100E700005025091060220910302309104024217AC
:100E80005307B4F49091E8009570E1F39091E80075
:100E900092FD19C08093F1008091050290910602A5
:100EA00001968F739927892B19F48EEF8093E800B0
:100EB000809105029091060201969093060280931C
:100EC000050281E0089580E00895EF92FF920F936C
:100ED0001F93CF93DF93F82E192FE62E042F81E076
:100EE000860F880F0E94370783E00E943707CF2DB7
:100EF000D12FEC0EFD2EF11CCE15DF05B9F007FF4A
:100F000013C0FE0184910E943707182F80E00E94D1
:100F10003707812321968111EFCFDF91CF911F9168
:100F20000F91FF90EF9008958881EDCF81E0F5CF8C
:100F3000DF92EF92FF920F931F93CF93DF93D82E00
:100F40008A01EB017B01E40EF51ECE15DF0559F099
:100F5000D7FE12C0FE0184910E94370721968111AD
:100F6000F4CF0FEF1FEFC801DF91CF911F910F91C9
:100F7000FF90EF90DF9008958881EECF2FB7F8941F
:100F800087708093E9009091E800892F807295FF27
:100F900004C09091F20080E4891B2FBF0895EF9266
:100FA000FF920F931F93CF93DF938C017B01D0E0CF
:100FB000C0E0F701EC0FFD1F6491662361F0D801DA
:100FC000ED91FC910190F081E02DC8010995892BEC
:100FD00011F02196EECFCE01DF91CF911F910F91AD
:100FE000FF90EF900895AF92BF92CF92DF92EF9271
:100FF000FF920F931F93CF93DF936C017B018B01C3
:10100000040F151FEB015E01AE18BF08C017D10712
:1010100059F06991D601ED91FC910190F081E02D9C
:10102000C6010995892B79F7C501DF91CF911F91F1
:101030000F91FF90EF90DF90CF90BF90AF90089509
:101040008091FB0181110DC082E08093F70184E063
:101050008093F8011092FA011092F90181E08093D7
:10106000FB0187EF91E008950F931F93CF93DF93D8
:101070001F92CDB7DEB782E0898342E450E06DE78E
:1010800071E080E80E9498070E942008DC01129617
:101090000D911C910115110589F0D801ED91FC917C
:1010A0000280F381E02DBE016F5F7F4FC80109957B
:1010B00097FD04C0F80100851185ECCF89810F9060
:1010C000DF91CF911F910F910895CF93DF93FC0192
:1010D000DB01818114963C911497682F630F772769
:1010E000771F683071059CF5C281D381209739F54F
:1010F000B383A283908112969C93129713968C933C
:10110000139715968C911597890F808390E080E056
:10111000831708F52181C22FD0E0BE0160507F4FB8
:1011200016964D915C911797480F591FEA01488117
:10113000EB0148832F5F21830196EACFEA014885BE
:10114000598541155105D1F7B987A887D3CF80E0DC
:10115000DF91CF91089581E0FBCFCF93DF931F9272
:10116000CDB7DEB76983DC01ED91FC910280F3819C
:10117000E02D41E050E0BE016F5F7F4F09950F9079
:10118000DF91CF91089583E08093E9008091F20090
:10119000882319F08AE38093E800089583E00E9491
:1011A000BE0790E00895CF93DF931F92CDB7DEB7CF
:1011B000FC018485958597FD08C02FEF3FEF3587AB
:1011C00024870F90DF91CF910895CE0101960E9460
:1011D000E306019719F4898190E0F3CF8FEF9FEF39
:1011E000F0CF2FB7F8948091120290911302A09142
:1011F0001402B09115022FBF80934C0390934D03BE
:10120000A0934E03B0934F0384E493E00E94D3086D
:1012100097FF26C02FB7F894809112029091130285
:10122000A0911402B09115022FBF40914C03509130
:101230004D0360914E0370914F03841B950BA60BD9
:10124000B70B409148035091490360914A03709154
:101250004B0384179507A607B707B0F28FEF9FEFF0
:1012600008950F931F93CF93DF931F92CDB7DEB7EF
:101270008C01FC018485958597FF0BC0CE010196FA
:101280000E94E306019771F4898190E0F801958747
:101290008487F801848595850F90DF91CF911F9108
:1012A0000F9108958FEF9FEFF1CFFC018485958515
:1012B00097FD0BC09FB7F89482E08093E90080917E
:1012C000F2009FBF90E0019608959FB7F89482E0E6
:1012D0008093E9008091F2009FBF90E008953FB7AE
:1012E000F8948091F3019091F401A091F501B091EF
:1012F000F60126B5A89B05C02F3F19F00196A11D48
:10130000B11D3FBFBA2FA92F982F8827BC01CD014F
:10131000620F711D811D911D42E0660F771F881FAE
:10132000991F4A95D1F708958F929F92AF92BF92DD
:10133000CF92DF92EF92FF926B017C010E946F09C6
:101340004B015C01C114D104E104F104B9F00E9425
:101350006F09681979098A099B09683E73408105FC
:10136000910580F321E0C21AD108E108F10888EE66
:10137000880E83E0981EA11CB11CE4CFFF90EF9073
:10138000DF90CF90BF90AF909F908F9008957F9205
:101390008F929F92AF92BF92CF92DF92EF92FF9285
:1013A0000F931F93CF93DF93C82E8B017A01809107
:1013B0001102811110C08FEF9FEFDF91CF911F912C
:1013C0000F91FF90EF90DF90CF90BF90AF909F90E4
:1013D0008F907F9008958091090280FF05C08091D1
:1013E000E00082608093E000CE2DDF2DD12C8AEFCB
:1013F000B82E8C2D8770982E8C2D8072882E8C2D77
:101400008074782E9AE3A92E209719F4DD2009F430
:1014100052C08C2D0E94BE0781110AC0BA94BB2015
:1014200051F261E070E080E090E00E949409ECCF1E
:101430008C171D0611F00CF08C2F9FB7F89490922A
:10144000E9002091E80025FD02C09FBFDDCF282FD5
:1014500030E0C21BD30B882029F08150A0F01092FD
:10146000F100FBCFF801C7FC0AC0815050F0419158
:101470004093F100FACF44914093F10031968150AE
:10148000D0F7020F131FDD2021F0A092E800D12C2D
:10149000DCCF8091E80085FD07C0A092E800DD2444
:1014A000D394209791F2F3CF209779F6772069F2C1
:1014B000A092E800CACF84E680930802C7017DCFDE
:1014C000CF93DF93EC0180911201882331F083E008
:1014D0000E94C7091816190634F081E090E09B833A
:1014E0008A8380E090E0DF91CF910895DC01FB01D9
:1014F00012962C911297848195812817190641F430
:1015000091818081813A31F49D7F81E0913009F0B1
:1015100080E008958132E1F79B3029F482811F96A3
:101520008C9381E008959A3099F7828150968C933C
:10153000F8CFDC01FB0188E4808389E4818384E4C3
:1015400082831D969C911D979F709F5B93831D9630
:101550008D919C9124E0969587952A95E1F78F705F
:101560008F5B848385E00895EF92FF920F931F9322
:10157000CF93DF93FB012081213871F52381223243
:1015800059F5DC0112964C912481358142171306DE
:1015900019F5EC010B851C85F12CE12C01151105C9
:1015A00089F0F801448155816281738180E80E944D
:1015B00098078F3F980749F0E80EF91ED8010D9162
:1015C0001C91ECCF81E08F87C701DF91CF911F91F4
:1015D0000F91FF90EF90089590E080E0F6CFCF93C9
:1015E000DF93CDB7DEB769970FB6F894DEBF0FBEB5
:1015F000CDBFFC01DB018C918F5F8C939E012D5F31
:101600003F4F8DE0D9011D928A95E9F729E02983A2
:1016100084E08A8391E09D8383E08E832A8721E2A0
:101620002B879C879D879F8722E2288B27E02B8B27
:1016300025E02C8B8E8B20E430E0388F2F8B998F18
:1016400082818B8395858685998B8A8B838180683F
:101650008D8B49E150E0BE016F5F7F4F80E00E94BB
:10166000980769960FB6F894DEBF0FBECDBFDF9125
:10167000CF910895CF93DF93EC01FB012A81848100
:1016800095812817190609F04BC081819081913A04
:1016900079F4813029F0833039F48F898093F10017
:1016A00081E0DF91CF9108958230D1F5888DF6CF1A
:1016B0009132B1F58B3019F482818F8BF1CF8A3062
:1016C00019F48281888FECCF893051F5668177815A
:1016D0008381833079F48C8D9D8D6817790701F5AE
:1016E0008A8D9B8D0E940C078C8D9D8D90689D8F9F
:1016F0008C8FD6CF823051F46130710589F461E06E
:1017000070E0CE0149960E940C07CACF813041F4A7
:101710006830710529F468E070E0CE010E96F3CFD1
:1017200080E0BFCFFB0120812138B1F42381223238
:1017300099F4DC0112964C9112972481358142175D
:10174000130651F421E057962C9345E450E068E3EA
:1017500071E080E80C94980790E080E00895CF93C2
:10176000DF93CDB7DEB769970FB6F894DEBF0FBE33
:10177000CDBFFC01DB019C919F5F9C939E012D5F7F
:101780003F4F81E1D9011D928A95E9F729E029832C
:1017900084E08A8391E09D8383E08E839F83988792
:1017A0002A8721E22B879C879D879F8722E2288BAF
:1017B00025E4298B27E02B8B25E02C8B8E8B20E4D6
:1017C00030E0388F2F8B998F82818B838381806863
:1017D0008D8B49E150E0BE016F5F7F4F80E00E943A
:1017E000980769960FB6F894DEBF0FBECDBFDF91A4
:1017F000CF910895FC0182818F5BFB01808381E0A2
:101800000895EF92FF920F931F93CF93DF931F9250
:10181000CDB7DEB77C018091C30381112CC011E0EC
:101820001093B6031093B7038CEB93E09093B90336
:101830008093B8031092BB031092BA038FE491E037
:101840009093B3038093B2031092BE031092BD0332
:101850001092C0031092BF031093C1031093C203F0
:1018600081EC8093BC030E94200862EB73E00E942D
:1018700065081093C30382E0898341E050E0BE0114
:101880006F5F7F4F8091B5030E94C7098C0197FD60
:101890000EC0B7016C5F7F4F8091B50348E050E008
:1018A00080640E94C709080F191F97FD8C01C801A9
:1018B0000F90DF91CF911F910F91FF90EF900895BE
:1018C000089590E080E00895EF92FF920F931F93A8
:1018D000CF93DF937C01D42FE62FF0E0E854FF4F45
:1018E000C4916C2F6F77DC01ED91FC910484F58538
:1018F000E02D09958C01C7FF10C0892B11F4D1117F
:101900000CC0D701ED91FC910484F585E02D4D2F9D
:1019100061EEC7010995082B192BC801DF91CF9102
:101920001F910F91FF90EF9008950F931F93CF9306
:10193000DF938C01D0E0C0E081E00E94770664E68E
:1019400070E080E090E00E94940980E00E947706B9
:1019500064E670E080E090E00E94940921960C1704
:101960001D0751F7DF91CF911F910F910895FC0151
:101970009C01285F3F4F90E080E044814111019637
:1019800014823196E217F307C1F708958EE993E0C8
:101990000E94B70C8EE993E00C943513FC0190E2A1
:1019A000960F9830F8F0DF01169630E020E08D9128
:1019B000442351F0681711F081110CC0E20FF31F9E
:1019C000668381E090E00895681304C0E20FF31F7E
:1019D0001682F7CF2F5F3F4F2630310541F790E059
:1019E00080E00895848161E070E001C0660F9A95FF
:1019F000EAF7442319F0682B6483E3CF60956823EA
:101A0000FBCFCF93DF9341E0682F8EE993E00E94F4
:101A1000CE0CEC01892B21F08EE993E00E94351366
:101A2000CE01DF91CF9108950F931F93CF93DF9352
:101A300067FF0DC021E030E0FC013383228310E01A
:101A400000E0C801DF91CF911F910F910895EC0143
:101A500041E00E94640C8C01892B99F3E881F981A3
:101A60000284F385E02DCE010995EBCFEF92FF9232
:101A70001F93CF93DF93EC01162F0E94140D7C016E
:101A8000892B31F017FF0BC081E090E09B838A83A4
:101A9000C701DF91CF911F91FF90EF90089540E033
:101AA000612FCE010E94640C892B91F3E881F981AA
:101AB0000284F385E02DCE010995EACF0F931F93A1
:101AC000CF93DF93EC01E881F9810084F185E02D6B
:101AD00009958C01892B39F0E881F9810284F3851D
:101AE000E02DCE010995C801DF91CF911F910F9193
:101AF0000895BF92CF92DF92EF92FF920F931F93C0
:101B0000CF93DF93B82E8B01D0E0C0E06A01550F70
:101B1000EE08FF0881E090E00E94950C8B2D0E945A
:101B2000010DC701B6010E9494098EE993E00E945D
:101B30005E0D64E670E080E090E00E9494092196DA
:101B40000C171D0739F7DF91CF911F910F91FF906F
:101B5000EF90DF90CF90BF9008950F931F93CF9396
:101B6000DF93D0E0C0E006E112E0F8016081CE0131
:101B70000E941A1ECE010E94121EF8019081981335
:101B80000DC021960F5F1F4FCE32F1E0DF0769F7DE
:101B9000CE01DF91CF911F910F910895CFEFDFEF2D
:101BA000F7CF0F931F93CF93DF9306E112E0D0E0BE
:101BB000C0E0CE010E94121EF80181938F01219690
:101BC000CE32F1E0DF07A9F78EE291E0DF91CF910D
:101BD0001F910F910895FB0101900020E9F73197C3
:101BE000AF01461B570BDC01ED91FC910280F381A4
:101BF000E02D09948F929F92AF92BF920F931F9303
:101C0000CF93DF93CDB7DEB7A1970FB6F894DEBFC1
:101C10000FBECDBF19A2423008F44AE08E010F5D1D
:101C20001F4F842E912CB12CA12CA50194010E9450
:101C3000791EE62FB901CA01EA3004F5E05DD8014A
:101C4000EE938D01232B242B252B79F790E080E058
:101C5000109729F0BD0184E493E00E94EB0DA1965A
:101C60000FB6F894DEBF0FBECDBFDF91CF911F91AD
:101C70000F91BF90AF909F908F900895E95CDFCF58
:101C8000CF92DF92EF92FF92CF93DF936B017C01B3
:101C90006DE284E493E00E94AD08EC0166277727AB
:101CA000CB016C197D098E099F094AE00E94FA0D4B
:101CB0008C0F9D1FDF91CF91FF90EF90DF90CF9021
:101CC000089569E671E00C94EB0DCF93DF93BC01AE
:101CD00084E493E00E94CF07EC0184E493E00E9447
:101CE000610E8C0F9D1FDF91CF910895CF93DF93ED
:101CF000FC01448155816081718184E493E00E94FC
:101D0000600AEC0184E493E00E94610E8C0F9D1F39
:101D1000DF91CF910895CF93DF93BC01990F880B8A
:101D2000990B97FF0CC00E94400EEC0184E493E0F5
:101D30000E94610E8C0F9D1FDF91CF9108954AE0A4
:101D40000E94FA0DF2CFCF93DF9397FF0CC00E9451
:101D5000400EEC0184E493E00E94610E8C0F9D1F05
:101D6000DF91CF9108954AE00E94FA0DF2CF0F93D0
:101D70001F93CF93DF938C01D0E0C0E06115710514
:101D800019F00E94EB0DEC01C8010E94610E8C0F4E
:101D90009D1FDF91CF911F910F910895FB01448109
:101DA0005581FC01248135812417350778F0808125
:101DB0009181009759F0FB01608171816115710576
:101DC00029F00E94932021E0892B09F020E0822F46
:101DD00008956CE671E086E192E00E948C206BE64B
:101DE00071E085E193E00E948C2082E290E0909384
:101DF000400380933F0384EB90E0A0E0B0E0809349
:101E0000350390933603A0933703B093380381E0F2
:101E100080933D0310923E0386E090E0A0E0B0E0A6
:101E20008093390390933A03A0933B03B0933C0310
:101E30001092420310924103109243030E94AD0D91
:101E400097FF1DC00E94AD0D97FF19C06DE771E0AF
:101E500084E493E00E94B70E81E00E94770662E37B
:101E600070E080E090E00E94940980E00E94770694
:101E700062E370E080E090E00E949409EDCF0C9462
:101E8000D10D0F931F93CF93DF93EC01888199813C
:101E9000009759F02A813B812617370730F081E0FF
:101EA000DF91CF911F910F9108958B016F5F7F4F4D
:101EB0000E94C61F009759F0998388831B830A8369
:101EC0002C813D81232B59F7FC011082E8CF80E063
:101ED000E7CFCF93DF93EC0188819981009711F0D0
:101EE0000E943D1F198218821D821C821B821A8249
:101EF000DF91CF910895EF92FF920F931F93CF93AD
:101F0000DF93EC017B01198218821B821A821D82E9
:101F10001C82FB0101900020E9F731978F01061B1D
:101F2000170BB8010E94410F811109C0CE01DF914A
:101F3000CF911F910F91FF90EF900C94690F1D832B
:101F40000C83B70188819981DF91CF911F910F9107
:101F5000FF90EF900C948C209F92AF92BF92CF9203
:101F6000DF92EF92FF920F931F93CF93DF937C0149
:101F70006B015A0189012417350720F48B2D590173
:101F8000042F182F6BE671E0C7010E947B0FD6016A
:101F90001496CD91DC91AC16BD0650F50C171D07BB
:101FA00008F4E801D601ED91FC911197EC0FFD1FAB
:101FB000908010820D911C910A0D1B1D01151105B9
:101FC00071F0F80101900020E9F731975F01A01A44
:101FD000B10AB501C7010E94410F811116C0C701A6
:101FE0000E94690FD6018D919C91C80FD91F9882CC
:101FF000C701DF91CF911F910F91FF90EF90DF907C
:10200000CF90BF90AF909F900895F701B582A482C2
:10201000B801808191810E948C20E4CFFC018081F5
:102020009181009711F00C943D1F0895EF92FF925B
:102030000F931F93CF93DF93EC018B0119821882CA
:102040001B821A821D821C82CB010E94BC1D7C0156
:10205000BC01CE010E94410F811109C0CE01DF9168
:10206000CF911F910F91FF90EF900C94690FFD821B
:10207000EC82B80188819981DF91CF911F910F91F6
:10208000FF90EF900C94B51D1F920F920FB60F9218
:1020900011248F939F938091E1009091E100937FB1
:1020A0009093E10083FF0FC01092E90091E09093BC
:1020B000EB001092EC0092E39093ED00109211026D
:1020C00098E09093F00082FF1CC093E09093E900A9
:1020D0009091F200992319F09AE39093E80090917F
:1020E0000802992329F090910802915090930802D8
:1020F00090911002992329F09091100291509093A1
:10210000100284FF18C08091E2008E7E816080936F
:10211000E2008091E1008F7E8093E10080910902CE
:102120008E7E8061809309029F918F910F900FBEE8
:102130000F901F90189580FFF7CF8091E2008E7E60
:1021400080618093E2008091E1008E7E8093E100C7
:10215000809109028E7E8160E5CF1F920F920FB6AB
:102160000F921124CF92DF92EF92FF920F931F9361
:102170002F933F934F935F936F937F938F939F938F
:10218000AF93BF93EF93FF93CF93DF93CDB7DEB7BA
:102190006C97DEBFCDBF1092E9008091E80083FF0D
:1021A0002FC089E0FE017596EE2EDF2E815029F0BA
:1021B0009091F10090833196F9CF84E680931002DC
:1021C00082EF8093E8008D8987FF39C09091E80005
:1021D00090FFFCCF982F907609F033C19E894F89EC
:1021E000588D2F89F88C911131C0803861F580911C
:1021F0000A028093F1001092F1008EEF8093E800C4
:102200006C960FB6F894DEBF0FBECDBFDF91CF91B5
:10221000FF91EF91BF91AF919F918F917F916F91BE
:102220005F914F913F912F911F910F91FF90EF90F0
:10223000DF90CF900F900FBE0F901F9018959EEFDC
:102240009093E800C7CF1092F100D5CF913059F4A8
:102250008111D3CF4130510581F680910A028D7FE3
:1022600080930A02CACF933049F48111C6CF41301E
:10227000510519F680910A028260F2CF953041F43F
:102280008091E80080FFFCCF20682093E300B5CF69
:10229000963009F0A8C00B8D1C8D22E01092E90049
:1022A0001092060210920502F2122EC01092040241
:1022B000109203020E9434081F8299E09983FA82E7
:1022C00091E09E8390EA98879AEF99872091050282
:1022D00030910602275F3F4F3C832B838D83109202
:1022E000E900109206021092050210930402009376
:1022F000030249E050E0BE016F5F7F4F80E00E9423
:1023000098070E94340879CF1093040200930302C7
:102310000E942008DC0112960D911C9101151105F7
:1023200009F449C1D801ED91FC910480F581E02DBB
:102330006E2D7D2DC8010995009709F037C1F80170
:1023400000851185EBCFF3E0FF120EC08F89882343
:1023500009F440C0823061F440E867E18EED91E01D
:102360000E946507811149CF81E28093EB0048CF3D
:10237000813029F440E868E085ED91E0F1CF8330C9
:1023800099F70E942008DC011296ED90FC908E01D6
:102390000F5F1F4F6801E114F10479F0D701ED914F
:1023A000FC910680F781E02DB801C7010995080F5F
:1023B000111DF701E084F184EECFD8011C92F601E3
:1023C00001900020E9F73197BF016C197D0940E0C9
:1023D000C601C6CF6FEB71E0FB01449150E080E88D
:1023E0000E9498070ACF973009F4BECF983021F4A5
:1023F00081E08093F10001CF993009F0FECE837027
:1024000009F0B2CFE1E0F1E081E031E096E3219123
:10241000222371F08093E9003093EB00DF011197E4
:102420002C912093EC009093ED008F5F873079F72B
:102430008EE78093EA001092EA008F898093110260
:10244000DCCE8B8D9C8D1092E900109206021092CA
:1024500005029093040280930302898D81118CC040
:102460008E899D89913A49F4813209F07DCF47E008
:1024700050E06BE071E080E0B3CF913209F074CFAF
:10248000833269F48F89988DB0E0A0E080930701D2
:1024900090930801A0930901B0930A01AECE803257
:1024A00039F467E070E08BE091E00E940C07A5CE64
:1024B000823209F0A2CE8F8980931201EEEFFFE7FE
:1024C000859194918B3F9C4D51F1E0E0F8E0809133
:1024D0000B0190910C01A0910D01B0910E01803B78
:1024E0009440A105B105F1F48091120180FD1AC05C
:1024F000EE3F8AE0F80789F587E797E791838083C5
:10250000809160008093070288E19BE00FB6F89409
:10251000A895809360000FBE909360006ECEEEEFA2
:10252000FAE0D5CF808191818737974709F065CE52
:10253000A895809160008861809360008091070277
:1025400080936000EE3F2AE0F20789F08091FE0A56
:102550009091FF0A9183808350CE8081918187374B
:10256000980751F29093FF0A8093FE0AC5CF10920C
:10257000FF0A1092FE0A41CE0E942008DC0112964A
:102580000D911C910115110509F4EECED801ED91C4
:10259000FC910190F081E02D6E2D7D2DC8010995F3
:1025A00081112BCEF80100851185ECCF1816190684
:1025B0000CF423CED9CEF1E0FF12C5CE63EC71E06E
:1025C0000BCF1F920F920FB60F9211242F933F93B0
:1025D0008F939F93AF93BF938091120290911302B8
:1025E000A0911402B09115023091F20123E0230F63
:1025F0002D3758F50196A11DB11D2093F20180934E
:10260000120290931302A0931402B09315028091CA
:10261000F3019091F401A091F501B091F6010196BA
:10262000A11DB11D8093F3019093F401A093F501D6
:10263000B093F601BF91AF919F918F913F912F91F0
:102640000F900FBE0F901F90189526E8230F02964B
:10265000A11DB11DD2CFBC01625F7F4FFC01838100
:1026600048E050E080640C94C7090A970C942B133F
:10267000CF93109247031092460388EE93E0A0E0B8
:10268000B0E08093480390934903A0934A03B0932A
:102690004B038DE191E090934503809344038FEFCA
:1026A0009FEF9093510380935003C1E0C093980330
:1026B000C09399038AEA93E090939B0380939A03D3
:1026C00010929D0310929C031092A1031092A003FC
:1026D0008FE291E090939503809394038DE391E0D2
:1026E00090939F0380939E03C093AB03C093AC036E
:1026F0001092AD031092AF031092AE031092B1038B
:102700001092B00381EC8093AA030E94200864E930
:1027100073E00E9465081092DC031092DB038BE5E6
:1027200091E09093DA038093D9038091D1038111D2
:1027300012C01092CC031092CB038DE59CE09093D5
:10274000CE038093CD038BE390E09093D0038093EE
:10275000CF03C093D1038091C30381112CC0C1E08A
:10276000C093B603C093B7038CEB93E09093B90387
:102770008093B8031092BB031092BA038FE491E0E8
:102780009093B3038093B2031092BE031092BD03E3
:102790001092C0031092BF03C093C103C093C20341
:1027A00081EC8093BC030E94200862EB73E00E94DE
:1027B0006508C093C303E091BD03F091BE03309759
:1027C000B9F48BEC93E09093BE038093BD038091AA
:1027D000BF039091C0032091CF033091D003820FAB
:1027E000931F9093C0038093BF03CF910895FC0182
:1027F000808191810097D9F78BEC93E0918380835E
:10280000E6CFCF93DF93CDB7DEB7AD970FB6F89491
:10281000DEBF0FBECDBF789484B5826084BD84B521
:10282000816084BD85B5826085BD85B5816085BDCB
:1028300080916E00816080936E0010928100809183
:10284000810082608093810080918100816080930B
:102850008100809180008160809380008091910050
:1028600082608093910080919100816080939100BB
:10287000809190008160809390008091C10084607D
:102880008093C1008091C10082608093C1008091DB
:10289000C10081608093C1008091C30081608093FA
:1028A000C3008091C00082608093C0008091C2000C
:1028B00081608093C20080917A00846080937A0066
:1028C00080917A00826080937A0080917A008160A2
:1028D00080937A0080917A00806880937A001092C9
:1028E000110210920A02109209028091D7008160B1
:1028F0008093D70080EA8093D80089B5806189BD34
:1029000089B5826089BD09B400FEFDCF61E070E049
:1029100080E090E00E9494098091D8008F7C8061D3
:102920008093D8008091E000807F8093E0008091C8
:10293000E1008E7E8093E1008DE08093E200ECE286
:10294000FCE02491EDE0FCE08491882399F090E094
:10295000880F991FFC01EA50FE4FA591B491FC012C
:10296000EE50F44F859194918FB7F894EC91E22B4F
:10297000EC938FBF81E00E9477068FEF9FEF9093DB
:1029800051038093500360ED77E080E090E00E9477
:10299000940980E00E94770681E00E9477060E94F9
:1029A000D10D80913F0390914003829711F00E94D6
:1029B000E90E8AEC9BE00E94650E8EE99BE00E9486
:1029C000650E10920F0210920E0280913D03882333
:1029D000A1F00AE010E084E493E00E945509892BFD
:1029E00009F4BAC084E493E00E945509892B29F0C8
:1029F00084E493E00E94D308F5CF82E090E09093C6
:102A00000F0280930E0280E00E9477068E010F5F16
:102A10001F4F1E0127E2220E311C80910E02909161
:102A20000F028130910509F47DC608F4B6C68230E4
:102A3000910509F49CC08330910599F782E89BE0E9
:102A40000E94650E83E090E00E94950C60ED77E0B7
:102A500080E090E00E9494090E94C60C80EE0E94E3
:102A6000010D8BE30E94010D8EE993E00E945E0D43
:102A700042E350E063E070E081E50E94790D6BE68F
:102A800071E08EE993E00E94B70E68E873E180E0A0
:102A900090E00E94940968EE71E08EE993E00E9454
:102AA000EB0D68EE73E080E090E00E9494096BE625
:102AB00071E08EE993E00E94B70E68E873E180E070
:102AC00090E00E94940980EE0E94010D80E40E9433
:102AD000010D8EE993E00E945E0D48E250E062E055
:102AE00070E08BE20E94790D48E250E061E070E016
:102AF0008CE20E94790D48E250E061E070E08BE2E8
:102B00000E94790D48E250E061E070E08CE20E94A2
:102B1000790D68EB7BE080E090E00E94940980EE04
:102B20000E94010D80E40E94010D8EE993E00E9455
:102B30005E0D83EE0E94010D61E78EE993E00E9435
:102B4000140D62E370E080E090E00E9494098EE949
:102B500093E00E945E0D16C664EF71E080E090E0A5
:102B60000E9494090150110909F035CF4CCF8FEF25
:102B70009FEF909351038093500386E29BE00E9465
:102B8000650E73E0C72ED12C80910E0290910F023A
:102B9000029709F042CF80E492E4AFE0B0E0809386
:102BA000480390934903A0934A03B0934B0381E0F9
:102BB00090E00E94950C65E971E084E493E00E9446
:102BC000EB0D6BE671E0CE0181960E947B0F0E94B7
:102BD000F10897FD1DC08A309105D1F089831A82D2
:102BE000EDA0FEA09FEFE91AF90AB701CE01819688
:102BF0000E94410F882359F329A13AA18DA19EA1DA
:102C0000B801820F931F0E948C20FEA2EDA2DFCF9D
:102C100089A09AA08114910439F0EDA0FEA054017E
:102C2000E114F10409F0A5C0CE0181960E94760E50
:102C300067E971E0C8010E947B0FB801CE0181965F
:102C40000E94CE0EF82EC8010E940E10E1E0FE1286
:102C5000D4C06CE971E084E493E00E94EB0D8091B4
:102C60003F03909140030E948B0E6DE17BE084E472
:102C700093E00E94CF0766E172E084E493E00E9453
:102C8000B70E6EE07BE084E493E00E94CF07609192
:102C900035037091360380913703909138030E9479
:102CA000A30E6AEF7AE084E493E00E94CF0760917C
:102CB000390370913A0380913B0390913C030E9449
:102CC000A30E69EE7AE084E493E00E94CF0780913E
:102CD0001503882309F485C066EA71E084E493E073
:102CE0000E94B70E6DED7AE084E493E00E94CF0776
:102CF00080913D03882309F479C06AEA71E084E495
:102D000093E00E94B70E6DEC7AE084E493E00E94B9
:102D1000CF0780914103909142030E948B0E6FEB8D
:102D20007AE084E493E00E94CF0780913E036AEA50
:102D300071E0811102C06DEA71E084E493E00E94C9
:102D4000B70E66EA7AE084E493E00E94CF078091B0
:102D500043036AEA71E0811102C06DEA71E084E424
:102D600093E00E94B70ECE0181960E940E100CCF08
:102D700053013501AFEF6A1A7A0AF5018081082EF6
:102D8000000C990B0E94061E892B91F7F1E0EF1AB7
:102D9000F108E80CF91CD7018C91082E000C990B56
:102DA0000E94061E892B39F0EA14FB0420F0B1E0E2
:102DB000EB1AF108F0CFA7014F5F5F4F4A195B098B
:102DC0005EA34DA38A149B0420F4B501C4010E94A4
:102DD0008320E9A1FAA18DA19EA1E80FF91F10821D
:102DE00023CF86EE9AE00E94650E7CCF6DEA71E0FB
:102DF00084E493E00E94B70E92CF61EB71E0C801CA
:102E00000E947B0FB801CE0181960E94CE0EF82E53
:102E1000C8010E940E10F1E0FF1218C02DA13EA1C2
:102E20004CE050E0BE016F5D7F4FC8010E94AC0FC7
:102E300069817A814FEF50E086E192E00E94A12003
:102E40000E94AD0DC8010E940E108DCF6DEB71E098
:102E5000C8010E947B0FB801CE0181960E94CE0E60
:102E6000F82EC8010E940E1021E0F21211C02DA10F
:102E70003EA146E150E0BE016F5D7F4FC8010E9458
:102E8000AC0F69817A8140E250E085E193E0D6CFD2
:102E900061EA7AE0C8010E941610B801CE0181965D
:102EA0000E94CE0EF82EC8010E940E1031E0F312DF
:102EB0004DC085EF96E00E94650E82EE96E00E947E
:102EC000650E86EC96E00E94650E84EA96E00E940C
:102ED000650E8AE896E00E94650E83E596E00E9402
:102EE000650E84EF95E00E94650E8EE895E00E94E5
:102EF000650E85E295E00E94650E8BEE94E00E94DF
:102F0000650E8CEB94E00E94650E88E894E00E94C8
:102F1000650E88E294E00E94650E8EED93E00E94BB
:102F2000650E87E693E00E94650E8DE193E00E94B6
:102F3000650E85ED92E00E94650E8BE692E00E94A0
:102F4000650E84E092E00E94650E0DCF6FE87AE096
:102F5000C8010E941610B801CE0181960E94CE0EC3
:102F6000F82EC8010E940E1041E0F4121DC02DA1E0
:102F70003EA142E150E0BE016F5D7F4FC8010E945B
:102F8000AC0F89819A81009759F00E948E1D609341
:102F9000350370933603809337039093380350CFF3
:102FA00060E070E0CB01F3CF69E77AE0C8010E94EE
:102FB0001610B801CE0181960E94CE0EF82EC801DF
:102FC0000E940E1081E0F8121DC02DA13EA146E125
:102FD00050E0BE016F5D7F4FC8010E94AC0F898138
:102FE0009A81009759F00E948E1D60933903709367
:102FF0003A0380933B0390933C0322CF60E070E060
:10300000CB01F3CF67E67AE0C8010E941610B80141
:10301000CE0181960E94CE0EF82EC8010E940E109D
:1030200091E0F91219C02DA13EA142E150E0BE018C
:103030006F5D7F4FC8010E94AC0F89819A81009714
:1030400039F00E948E1D7093420360934103F8CEC5
:1030500060E070E0CB01F7CF61E67AE0C8010E9442
:103060001610B801CE0181960E94CE0EF82EC8012E
:103070000E940E10A1E0FA1203C00E94E90E73CE66
:1030800068E57AE0C8010E941610B801CE01819669
:103090000E94CE0EF82EC8010E940E10B1E0FB1265
:1030A00005C010920F0210920E025DCE6DE47AE020
:1030B000C8010E941610B801CE0181960E94CE0E62
:1030C000F82EC8010E940E10E1E0FE1211C087E741
:1030D00097E7909301088093000888E19BE00FB682
:1030E000F894A895809360000FBE90936000FFCF86
:1030F00069E47AE0C8010E941610B801CE018196F9
:103100000E94CE0EF82EC8010E940E10F1E081E060
:1031100090E0FF1609F437C163E47AE0C8010E9429
:103120001610B801CE0181960E94CE0EF82EC8016D
:103130000E940E1021E0F21205C0D0920F02C09240
:103140000E0211CE67E37AE0C8010E941610B801A2
:10315000CE0181960E94CE0EB82EC8010E940E109C
:1031600031E0B3123DC064EA71E089A19AA10E94E6
:10317000C51D892B09F164EA71E090E080E00E94AE
:10318000C51D7C01892BC1F064EA71E090E080E00C
:103190000E94C51D43E050E06AEA71E0C7010E9449
:1031A0009320892B61F4B0923D038EED99E00E944B
:1031B000650E0E94AD0DD7CD80EF99E0C4CE43E0FF
:1031C00050E06DEA71E0C7010E949320892B29F439
:1031D00010923D038BEC99E0EACF83EA99E0B3CEFD
:1031E0006BE979E0C8010E941610B801CE01819602
:1031F0000E94CE0EF82EC8010E940E1041E0F4127B
:10320000C7C064EA71E089A19AA10E94C51D780136
:10321000B12C009779F0A3E0BA1689F0F7018193F9
:1032200091937F01B39464EA71E090E080E00E94A2
:10323000C51DEFCFF3E081E199E0BF1284CEAD80F0
:10324000BE80EB80FC8085E297E00E94650E84E002
:1032500090E00E94950C0E94C60C83EE0E94010D26
:1032600060E28EE993E00E94140D62E370E080E07A
:1032700090E00E9494098EE993E00E945E0D6EE159
:1032800077E08EE993E00E94CF0764EF71E080E081
:1032900090E00E9494098EE993E00E94610E64EF31
:1032A00071E080E090E00E94940983EE0E94010D9D
:1032B00081EE0E94010D67E68EE993E00E94140DF5
:1032C00062E370E080E090E00E9494098EE993E070
:1032D0000E945E0D68EE73E080E090E00E94940929
:1032E000B7018EE993E00E94B70E68EE73E080E0CC
:1032F00090E00E94940983EE0E94010D6FE68EE932
:1033000093E00E94140D62E370E080E090E00E9480
:1033100094098EE993E00E945E0D68EB7BE080E00B
:1033200090E00E94940942E350E062E070E08BE29A
:103330000E94790D60E28EE993E00E94360D60ED07
:1033400077E080E090E00E949409A114B10429F094
:10335000B5018EE993E00E94EB0D68EE73E080E02A
:1033600090E00E9494096BE671E08EE993E00E9480
:10337000B70E89ED93E00E945E0D8EE993E00E9406
:103380005E0D82E090E090930F0280930E02EBCCF2
:1033900060E079E0C8010E941610B801CE01819664
:1033A0000E94CE0EB82EC8010E940E1021E0B2126B
:1033B00039C064EA71E089A19AA10E94C51D892BD8
:1033C000E9F064EA71E090E080E00E94C51D7C01B4
:1033D000892BA1F064EA71E090E080E00E94C51DB5
:1033E00043E050E06AEA71E0C7010E949320892B14
:1033F00041F4B0923E038DE998E0D9CE84EB98E099
:10340000A2CD43E050E06DEA71E0C7010E94932035
:10341000892B29F410923E0385E898E0C8CE8DE50B
:1034200098E091CD68E478E0C8010E941610B801D8
:10343000CE0181960E94CE0EB82EC8010E940E10B9
:1034400031E0B31239C064EA71E089A19AA10E9407
:10345000C51D892BE9F064EA71E090E080E00E94EC
:10346000C51D7C01892BA1F064EA71E090E080E049
:103470000E94C51D43E050E06AEA71E0C7010E9466
:103480009320892B41F4B09243038DED97E08FCECA
:103490008CEF97E058CD43E050E06DEA71E0C70152
:1034A0000E949320892B29F4109243038DEB97E01F
:1034B0007ECE85E997E047CD6EE877E0C8010E94AF
:1034C0001610B801CE0181960E94CE0EF82EC801CA
:1034D0000E940E1041E0F41216C00FB6F894A895A1
:1034E00080916000886180936000109260000FBE40
:1034F00088E198E00FB6F894A895809360000FBE1D
:1035000090936000FFCF8DA19EA1892B09F42BCC55
:1035100061E877E0C8010E941610B801CE018196DB
:103520000E94CE0EF82EC8010E940E1081E0F81203
:1035300093C08DA19EA15C01A0E1AA1AB1080E97CB
:1035400028F089A19AA1009709F075C010920B028A
:103550008BE092E0D0920D02C0920C02ECE0F2E01F
:10356000FF93EF93A3EDB1E0BF93AF939F938F933E
:103570000E94D3200F900F900F900F900F900F90FC
:103580008DA19EA1419730F0E9A0FAA0E114F104C9
:1035900009F053C010920B026BE0E62E62E0F62EAB
:1035A00020910C022DA71CA62CA53DA5369527958C
:1035B0004501B7FE03C04FEF841A940A959487948F
:1035C000C901880D991D01978E329140D0F5B1E067
:1035D000AB16BB06B4F5F901EA5EFD4FFBA7EAA7FF
:1035E000412C512C3201092C000CAA08BB084814AC
:1035F00059046A047B0444F51F930F9326ED31E0D0
:103600003F932F93FF92EF920E94D3208981AAA526
:10361000BBA58D93BBA7AAA7BFEF4B1A5B0A6B0A8A
:103620007B0AE2E0EE0EF11C0F900F900F900F90CE
:103630000F900F90DCCF0D968DCFF0E1EF0EF11CC7
:10364000AFCF88E697E07FCC80910C0290910D027D
:10365000029708F488CBADCD6BED71E0C8010E94F4
:103660007B0FB801CE0181960E94CE0EF82EC801C4
:103670000E940E10F1E0FF124CC040E250E065E104
:1036800073E0C8010E94A120E5E1F3E080E2DF01E0
:103690001D928A95E9F7F80101900020E9F731972A
:1036A0000E171F0719F081E08093150362E677E09B
:1036B00084E493E00E94CF0726E1E22E22E0F22E7E
:1036C000F70181917F011F928F9326ED31E03F93A7
:1036D0002F933F922F920E94B020B10184E493E097
:1036E0000E94EB0D0F900F900F900F900F900F9086
:1036F00084E493E08E159F0519F784E493E00E941B
:10370000610E40E250E0B80185E193E00E94A12003
:103710002ACB8BE397E00E94650ECE0181960E9432
:10372000760E21CB83E090E00E94950C0E94C60C9F
:1037300048E250E061E070E08BE20E94790D48E2DF
:1037400050E061E070E08CE20E94790D48E250E0C8
:1037500063E070E08BE20E94790D48E250E061E0A6
:1037600070E08CE20E94790D48E250E063E070E086
:103770008BE20E94790D48E250E061E070E08CE25B
:103780000E94790D8EE993E00E945E0D82E090E048
:1037900090930F0280930E0240C983E99BE00E9440
:1037A000650E0E94C60C64EF71E080E090E00E941C
:1037B0009409E5E1F3E001900020E9F7DF01A6516B
:1037C000B3407D01B1F164EF71E080E090E00E94D0
:1037D000940995E1892E93E0992EB12CA12CF40146
:1037E00061914F018EE993E00E94140D64E170E055
:1037F00080E090E00E9494098EE993E00E945E0DC3
:1038000064EF71E080E090E00E949409FFEFAF1A4E
:10381000BF0AAE14BF041CF388E20E94010D64EFDE
:1038200071E080E090E00E9494098EE993E00E94AC
:103830005E0D64EF71E080E090E00E9494090E94C8
:10384000C60C8CE3E82EF12C809141039091420349
:103850008130910509F44AC08230910509F443C0D2
:10386000892B41F483EE0E94010D62E78EE993E01B
:103870000E94140D6CE271E080E090E00E949409D7
:1038800081E090E00E94950C8EE993E00E945E0D2D
:1038900021E0E21AF108C1F6209135033091360398
:1038A0004091370350913803A8EEB3E00E94281EE0
:1038B0006B017C01812C912C54018C149D04AE046D
:1038C000BF04C4F482E090E00E94950C68E572E0C9
:1038D00080E090E00E94940938EE830E33E0931E5E
:1038E000A11CB11CEACF81EE0E94010D82EE0E9464
:1038F000010DB8CF40E951E061E070E089E20E943B
:10390000790D40E951E061E070E089E20E94790DB3
:1039100064EF71E080E090E00E94940940E951E09A
:1039200061E070E08CE20E94790D60E177E280E076
:1039300090E00E9494096AE671E08EE993E00E94AB
:10394000B70E60E375E780E090E00E9494098091F3
:103950003E03882309F46AC042E350E064E070E06B
:1039600081E50E94790D42E350E061E070E08BE276
:103970000E94790D42E350E061E070E08CE20E9429
:10398000790D60E27EE480E090E00E94940948EBCB
:103990005BE061E070E082E50E94790D83EE0E94B9
:1039A000010D81EE0E94010D65E68EE993E00E9413
:1039B000140D62E370E080E090E00E9494098EE9CB
:1039C00093E00E945E0D42E350E063E070E08BE222
:1039D0000E94790D42E350E061E070E08CE20E94C9
:1039E000790D60E375E780E090E00E94940942E37E
:1039F00050E061E070E088E20E94790D83EE0E9461
:103A0000010D61E78EE993E00E94140D62E370E01E
:103A100080E090E00E9494098EE993E00E945E0DA0
:103A200068EB7BE080E090E00E9494098091430382
:103A3000882389F180EE0E94010D8BE30E94010D25
:103A40008EE993E00E945E0D42E350E062E070E098
:103A50008FE40E94790D40E951E062E070E081E579
:103A60000E94790D6AE671E08EE993E00E94B70E3C
:103A700048E853E162E070E082E50E94790D6AE671
:103A800071E08EE993E00E94B70E60E177E280E09A
:103A900090E00E94940980EE0E94010D8BE30E9449
:103AA000010D8EE993E00E945E0D42E350E064E078
:103AB00070E08FE40E94790D40E951E064E070E02D
:103AC00081E50E94790D6AE671E08EE993E00E943B
:103AD000B70E2091390330913A0340913B03509146
:103AE0003C03A8EEB3E00E94281E0E94940966E100
:103AF00072E08EE993E00E94B70E8EE993E00E9497
:103B00005E0D8FEF9FEF909351038093500360ED14
:103B100077E080E090E00E94940938CE1F93FC018A
:103B200099278827BC01E89411911032E9F31930E4
:103B300010F01E30C8F31B3251F01D3249F4689466
:103B400006C00E94F11D610F711D811D911D119113
:103B500010531A30B0F33EF49095809570956195AE
:103B60007F4F8F4F9F4F1F910895FB01DC01059000
:103B70000D920020E1F70895FC0105900020E9F77F
:103B8000809590958E0F9F1F089545EE53E00E94FB
:103B9000CA1D0895FA01A191B081009719F41097F8
:103BA000E1F0CD01DC01CD010D90002011F4C00148
:103BB00013C0FB012191222319F02015D9F7F3CF6F
:103BC000FB012191201519F41E92119606C02223A3
:103BD000C1F70D900020A1F7D001FA01A193B083A5
:103BE0000895592F482F372F262F660F771F881FCC
:103BF000991F660F771F881F991F620F731F841FFD
:103C0000951F660F771F881F991F089591110C94B7
:103C10000F1E803219F089508550C8F708959927F2
:103C200088270895F999FECF92BD81BDF89A99270A
:103C300080B50895262FF999FECF1FBA92BD81BD98
:103C400020BD0FB6F894FA9AF99A0FBE019608951E
:103C50000E946A1EA59F900DB49F900DA49F800D99
:103C6000911D112408952F923F924F925F926F926F
:103C70007F928F929F92AF92BF92CF92DF92EF92FC
:103C8000FF920F931F93CF93DF93CDB7DEB7CA1B7D
:103C9000DB0B0FB6F894DEBF0FBECDBF09942A88A8
:103CA000398848885F846E847D848C849B84AA8450
:103CB000B984C884DF80EE80FD800C811B81AA81DD
:103CC000B981CE0FD11D0FB6F894DEBF0FBECDBFA8
:103CD000ED010895A29FB001B39FC001A39F700D95
:103CE000811D1124911DB29F700D811D1124911D04
:103CF0000895A1E21A2EAA1BBB1BFD010DC0AA1F2D
:103D0000BB1FEE1FFF1FA217B307E407F50720F044
:103D1000A21BB30BE40BF50B661F771F881F991FBF
:103D20001A9469F760957095809590959B01AC0108
:103D3000BD01CF010895EE0FFF1F0590F491E02D16
:103D400009940F931F93CF93DF938230910510F462
:103D500082E090E0E091E903F091EA0330E020E0B6
:103D6000B0E0A0E0309799F42115310509F44AC07C
:103D7000281B390B24303105D8F58A819B816115C8
:103D8000710589F1FB0193838283FE0111C040819B
:103D900051810281138148175907E0F048175907EC
:103DA00099F4109761F012960C93129713961C9346
:103DB0003296CF01DF91CF911F910F91089500931B
:103DC000E9031093EA03F4CF2115310551F04217AE
:103DD000530738F0A901DB019A01BD01DF01F801A9
:103DE000C1CFEF01F9CF9093EA038093E903CDCFE0
:103DF000FE01E20FF31F8193919322503109398321
:103E00002883D7CF2091E7033091E803232B41F497
:103E100020911501309116013093E8032093E703B8
:103E200020911301309114012115310541F42DB772
:103E30003EB74091170150911801241B350BE091BA
:103E4000E703F091E803E217F307A0F42E1B3F0B02
:103E50002817390778F0AC014E5F5F4F24173507FC
:103E600048F04E0F5F1F5093E8034093E7038193A0
:103E700091939FCFF0E0E0E09CCFCF93DF9300974A
:103E8000E9F0FC01329713821282A091E903B0910C
:103E9000EA03ED0130E020E01097A1F420813181A8
:103EA000820F931F2091E7033091E8032817390709
:103EB00009F061C0F093E803E093E703DF91CF914D
:103EC0000895EA01CE17DF07E8F54A815B819E017C
:103ED00041155105B1F7E901FB83EA8349915991F5
:103EE000C40FD51FEC17FD0761F480819181029604
:103EF000840F951FE90199838883828193819B8335
:103F00008A83F0E0E0E012968D919C9113970097E0
:103F1000B9F52D913C911197CD010296820F931F17
:103F20002091E7033091E8032817390739F63097D5
:103F300051F51092EA031092E903B093E803A093BD
:103F4000E703BCCFD383C28340815181840F951F87
:103F5000C817D90761F44E5F5F4F88819981480F78
:103F6000591F518340838A819B81938382832115CA
:103F7000310509F0B0CFF093EA03E093E9039ECF57
:103F8000FD01DC01C0CF13821282D7CFB0E0A0E0E8
:103F9000ECECFFE10C94351E8C01009751F4CB0141
:103FA0000E94A11E8C01C801CDB7DEB7E0E10C94E0
:103FB000511EFC01E60FF71F9C0122503109E21748
:103FC000F30708F49DC0D901CD91DC911197C61774
:103FD000D70798F0C530D10530F3CE010497861786
:103FE000970708F3C61BD70B2297C193D1936D9304
:103FF0007C93CF010E943D1FD6CF5B01AC1ABD0A56
:104000004C018C0E9D1EA091E903B091EA03512C46
:10401000412CF12CE12C109731F58091E703909120
:10402000E8038815990509F05CC04616570608F0A4
:1040300058C08091130190911401009741F48DB7FD
:104040009EB74091170150911801841B950BE817FA
:10405000F90708F055C0F093E803E093E703F9018E
:1040600071836083A0CF8D919C91119712966C9073
:10407000129713967C901397A815B90559F56C0102
:1040800042E0C40ED11CCA14DB0420F1AC014A1971
:104090005B09DA011296159780F062827382518370
:1040A0004083D9016D937C93E114F10471F0D70141
:1040B0001396FC93EE93129776CF22968C0F9D1F4A
:1040C000F90191838083F301EFCFF093EA03E0934A
:1040D000E90369CF4816590608F42C017D01D30184
:1040E0009ACFCB010E94A11E7C01009749F0AE013E
:1040F000B8010E948320C8010E943D1F870153CF51
:1041000010E000E050CFFB01DC0102C001900D92F5
:1041100041505040D8F70895FB01DC0101900D9209
:104120000020E1F70895FB01DC014150504030F0E0
:104130008D910190801919F40020B9F7881B990B13
:104140000895FB01DC014150504048F001900D9270
:104150000020C9F701C01D9241505040E0F708957A
:10416000AEE0B0E0E6EBF0E20C94411E0D891E8952
:1041700086E08C831A8309838FEF9FE79E838D836C
:10418000AE01475E5F4F6F89788DCE0101960E9428
:10419000EC202F813885020F131FF80110822E9614
:1041A000E4E00C945D1EAEE0B0E0E9EDF0E20C94CA
:1041B000431E85E08C838B899C899A838983AE0119
:1041C000495E5F4F6D897E89CE0101960E94512420
:1041D0002E96E2E00C945F1EABE0B0E0E2EFF0E27E
:1041E0000C94331E7C013B018A01FC01178216826C
:1041F000838181FFC8C1CE0101965C01F7019381E3
:10420000F30193FD859193FF81913F01882309F488
:1042100053C1853239F493FD859193FF81913F011C
:10422000853229F4B70190E00E94B325E7CF912CA5
:10423000212C312CFFE1F31538F08B3211F190F481
:10424000803209F1833229F137FC3CC020ED280F80
:104250002A3050F536FE20C08AE0989E200D1124A9
:10426000922E06C08D3291F0803371F7689430F849
:10427000F30193FD859193FF81913F018111DACF85
:1042800021C0689431F8689432F8F2CF689433F81A
:10429000EFCF689434F8ECCFEAE02E9E200D112485
:1042A000222E689435F8E4CF8E3229F436FC04C10E
:1042B000689436F8DDCF8C3619F4689437F8D8CF87
:1042C0008836B1F2982F9F7D95549330E0F0833675
:1042D000A1F18337C1F1833509F063C02801F2E011
:1042E0004F0E511CF801C080D180692D70E036FC62
:1042F00002C06FEF7FEFC6010E9461254C016894F8
:1043000037F882010AC00C5F1F4FFFE3F98388244E
:104310008394912C6501E89437F833FE2DC0522C1C
:104320008114910471F5552009F468CFB70180E23A
:1043300090E00E94B3255A94F6CFF80180818983DA
:104340000E5F1F4FE4CF2801F2E04F0E511CF80121
:10435000C080D180692D70E036FC02C06FEF7FEF26
:10436000C6010E946C254C018201D5CFB70180E2C5
:1043700090E00E94B3252A942814190409F0B0F79C
:10438000CECFF60137FC859137FE81916F01B701E1
:1043900090E00E94B32551105A94F1E08F1A9108D1
:1043A000BFCF843619F0893609F077C0F80137FE9F
:1043B0006BC060817181828193810C5F1F4FF32DEF
:1043C000FF763F2E97FF09C0909580957095619577
:1043D0007F4F8F4F9F4F689437F82AE030E0A50158
:1043E0000E94FB25C82ECA188C2C432C36FE0CC00C
:1043F000E89440F8C91440F434FE05C032FC03C010
:10440000F32DFE7E4F2E892C44FE95C0FE01EC0D4F
:10441000F11D8081803309F087C0242D297E422E32
:10442000842D8870582E43FC95C040FE8FC09C2C74
:10443000821418F42C0C922C981844FE91C0B701E9
:1044400080E390E00E94B32542FE09C088E790E037
:1044500041FE02C088E590E0B7010E94B325C9146F
:1044600008F48AC0CA94D12C9FEFC91AD90ACA0C81
:10447000DB1CF60182916F01B70190E00E94B32529
:10448000AC14BD04B1F74FCF60817181072E000CD1
:10449000880B990B0E5F1F4F92CFD32CE894D4F862
:1044A0002AE030E0853739F1232D297FD22E8F364F
:1044B00001F148F48835A9F0F701868197812B96A0
:1044C000E2E10C944F1E803749F08837A9F7D4FEFB
:1044D00002C06894D2F820E130E00DC06894D4F8AE
:1044E000F6CF34FE03C0822F8660D82E20E132E062
:1044F00002C028E030E0F801D7FE0FC06081718172
:10450000828193810C5F1F4FA5010E94FB25C82E5D
:10451000CA183D2CE89437F867CF6081718190E02C
:1045200080E00E5F1F4FF0CF42FC02C0839478CF33
:104530008394839475CF842D867809F471CFF6CF58
:10454000B70180E290E00E94B32583948214C0F307
:10455000512C73CF522C5818821408F46ECFF8CF18
:10456000842D867809F47BCF8BE241FE80E247FC04
:104570008DE2B70190E071CFB70180E390E00E9437
:10458000B3259A946CCF8FEF9FEF99CF20FD09C090
:10459000FC0123FD05C022FF02C0738362835183A7
:1045A0004083089544FD17C046FD1DC0DB01FC019A
:1045B000AA0FBB1FEE1FFF1F1094D1F76A0F7B1FBE
:1045C0008E1F9F1F660F771F881F991F620F711D17
:1045D000811D911D089533E0660F771F881F991F75
:1045E0003150D1F7F3CF34E0F7CF0F931F93CF9330
:1045F000DF938C01C8010E947725EC0197FD08C06C
:104600000E94061E892BB1F7B801CE010E94E32556
:10461000CE01DF91CF911F910F9108958F929F92BC
:10462000AF92BF92EF92FF920F931F93CF93DF93BE
:104630008C01D62F7A01B22E0E9477259C01332758
:104640002B32310529F02D323105A9F46894B7F8E1
:10465000D15061F480E0DF91CF911F910F91FF90D5
:10466000EF90BF90AF909F908F900895C8010E94E7
:10467000772597FDEFCFCB2DCD7F2B2D2073F9F430
:104680008033E9F4AA24AA94AD0E89F0C8010E94EF
:10469000772597FD0CC0282F2F7D283561F4C26443
:1046A000D25029F0C8010E94772597FF08C0812CBD
:1046B000912C54011BC0B6FE2BC0C260DA2D812C98
:1046C000912C540120ED280F283028F1C4FD09C099
:1046D0002A3008F1C6FF05C02F7D3FEE320F36307D
:1046E000C8F0B8010E94E325C1FFB4CFC7FF08C0DE
:1046F000B094A09490948094811C911CA11CB11C36
:104700002C2FB501A401C7010E94C62281E0A3CFCE
:10471000C261D4CF27504C2FC501B4010E94D222D0
:104720004B015C01C260D15009F3C8010E9477259A
:1047300097FFC8CFD9CFA0E2B0E0E1EAF3E20C9452
:10474000381E5C01962E7A01CE0101966C0180E242
:10475000F60111928A95E9F7F501B381890130E0FC
:1047600020E0712C812CA0E041E050E0F801B3FD85
:104770008591B3FF8191982F8F01811107C010E0BF
:1047800000E0C801A096EDE00C94541E8E3519F49B
:104790002115310541F1A21713064CF48D3549F16D
:1047A0008D3229F4811006C0882483941DC088208E
:1047B00009F464C0E92FE695E695E695EC0DFD2D2C
:1047C000F11D892F8770BA0101C0660F8A95EAF73B
:1047D0008081682B6083791651F0971510F49F5FE4
:1047E000E9CF9150E7CFA1E02F5F3F4FBFCF812CA2
:1047F000FBCF882019F08E8180628E83AA2359F026
:10480000F6019E012F5D3F4F808180958083319618
:10481000E217F307C9F788248394C5010E9477251E
:1048200097FD16C0E82FE695E695E695EC0DFD2D73
:10483000F11D208130E0AC014770552702C035954D
:1048400027954A95E2F720FD06C0B5010E94E325B1
:10485000882069F094CFE114F10429F0F7018083F6
:10486000C70101967C019A94812C9110D6CFE11456
:10487000F10409F486CFF701108283CFE82FE69583
:10488000E695E695EC0DFD2DF11D982F9770BA0178
:1048900001C0660F9A95EAF79081692B6083782EA4
:1048A000A3CFB0E0A0E0E7E5F4E20C94361E6C0183
:1048B000EB015A01FC0117821682512CF601E380AC
:1048C000FE01E3FC8591E3FE8191182FEF0188231F
:1048D000E9F090E00E94061E892B21F0C6010E949B
:1048E000F522ECCF153241F4FE01E3FC1591E3FE15
:1048F0001191EF01153269F4C6010E94772597FDE9
:104900008EC01817D9F2B6010E94E325852D90E0DC
:104910008AC000E01A3231F4E3FC1591E3FE1191F4
:10492000EF0101E0F12C20ED210F2A3048F101FFC9
:1049300037C0FF2059F31836B1F11C3609F43DC0D9
:10494000112321F3612F70E08CEA90E00E9456253C
:10495000892BE1F2912C812C00FD06C0F5018080AD
:104960009180C50102965C011E3679F5F6014681FB
:10497000578170E060E0202FC4010E94C6229ECFC4
:1049800002606F2D70E090E080E040E20E94D22251
:10499000F62EFE01E3FC1591E3FE1191EF01C3CF6A
:1049A000FF24FA94C8CFFE01E3FC1591E3FE1191B8
:1049B000EF01183609F0C4CF08600460FE01E3FC83
:1049C0001591E3FE1191EF01BBCF1336C1F401FD48
:1049D00002C0FF24F394C6010E94772597FD1FC0F3
:1049E0008114910429F0F4018083C40101964C01E3
:1049F000FA94F110F0CF00FD61CF53945FCF1B35D7
:104A0000B9F49E01A4016F2DC6010E949B23EC0105
:104A1000892B89F7F6018381807309F477CF8FEFB3
:104A20009FEF511073CFCDB7DEB7EFE00C94521E5D
:104A3000C6010E94F52297FDF2CF1F36A9F130F48E
:104A4000143641F0193639F0006405C01337B9F057
:104A50001537D1F70062202FA4016F2DC6010E94E7
:104A60000E238111C8CFD6CF8114910429F0F4010F
:104A70006082C40101964C01FA94FF2071F0C601D6
:104A80000E9477253C0197FD08C00E94061E892BD5
:104A900059F3B601C3010E94E3258114910409F47E
:104AA000AACFF4011082A7CF0061D5CFFC010590F9
:104AB000061621F00020D9F7C00108953197CF01E3
:104AC0000895FC010590615070400110D8F7809561
:104AD00090958E0F9F1F0895FC01615070400190CA
:104AE0000110D8F7809590958E0F9F1F0895CF9352
:104AF000DF93EC012B8120FF1AC026FF0CC02F7B17
:104B00002B838E819F8101969F838E838A8190E083
:104B1000DF91CF91089522FF18C0E881F98180814B
:104B2000082E000C990B009729F420622B838FEF3D
:104B30009FEFEECF3196F983E8832E813F812F5F7F
:104B40003F4F3F832E839927E3CFEA85FB85099565
:104B500097FFF3CF2B81019621F080E2822B8B838C
:104B6000E6CF80E1FBCF0F931F93CF93DF93182FF6
:104B7000092FEB018B8181FD09C01FEF0FEF812F02
:104B8000902FDF91CF911F910F91089582FF14C054
:104B90002E813F818C819D81281739073CF4E88163
:104BA000F981CF0101969983888310838E819F813B
:104BB00001969F838E83E3CFE885F985812F099540
:104BC000892BA1F3DACFFB01238120FF11C026FD41
:104BD0000FC08F3F980771F082832F7D206423835D
:104BE00026813781215031093783268399270895FB
:104BF0008FEF9FEF0895FA01AA27283051F1203155
:104C000081F1E8946F936E7F6E5F7F4F8F4F9F4F60
:104C1000AF4FB1E03ED0B4E03CD0670F781F891FA2
:104C20009A1FA11D680F791F8A1F911DA11D6A0F70
:104C3000711D811D911DA11D20D009F468943F9123
:104C40002AE0269F11243019305D3193DEF6CF0122
:104C50000895462F4770405D4193B3E00FD0C9F7E8
:104C6000F6CF462F4F70405D4A3318F0495D31FD55
:104C70004052419302D0A9F7EACFB4E0A6959795A8
:104C8000879577956795BA95C9F70097610571057E
:104C900008959B01AC010A2E0694579547953795C8
:104CA0002795BA95C9F7620F731F841F951FA01D22
:064CB0000895F894FFCF07
:104CB60000C18081000000FFFFFFFF00E10000004F
:104CC6000000000000EB03800000000000AD08605B
:104CD6000ACE08C3085509D3083109000000003A76
:104CE6000BAF0B920BFA0B2B13F6FF0000360DF3EE
:104CF60007610C600CB70C3513CE0C000000007673
:104D06000AEF0AB40A990A00000000360DF307619B
:104D16000C600CB70C010CCE0C0D0A002F566F6CF4
:104D2600756D65732F6D64732F72756E0065727283
:104D36006F722077726974696E6720646566617543
:104D46006C747321003E0073686F7700566572734A
:104D5600696F6E3A2000594553006F6E006F6666A4
:104D6600007365745F636F6D6D616E640073657467
:104D76005F6669726D776172655F70617373776F75
:104D860072640025640025303278006765745F73AD
:104D9600657474696E67730050726F66696C6573CB
:024DA60000000B
:00000001FF
